0101010010ATIVIDADE EDUCATIVA / ORIENTACAO EM GRUPO NA ATENCAO BASICA                                                                                                                                                                                               1I9999999900000048133100000000000000000000000000000001      200903
0101010028ATIVIDADE EDUCATIVA / ORIENTACAO EM GRUPO NA ATENCAO ESPECIALIZADA                                                                                                                                                                                        2I9999999900000084133100000000000000000270000000000006      200903
0101010036PRATICA CORPORAL / ATIVIDADE FISICA EM GRUPO                                                                                                                                                                                                              1I9999999900000072133100000000000000000000000000000001      200903
0101010044PRATICAS CORPORAIS EM MEDICINA TRADICIONAL CHINESA                                                                                                                                                                                                        1I9999999900000072133100000000000000000000000000000001      200903
0101020015ACAO COLETIVA DE APLICACAO TOPICA DE FLUOR GEL                                                                                                                                                                                                            1I9999999900000048133100000000000000000000000000000001      200903
0101020023ACAO COLETIVA DE BOCHECHO FLUORADO                                                                                                                                                                                                                        1I9999999900000048133100000000000000000000000000000001      200903
0101020031ACAO COLETIVA DE ESCOVACAO DENTAL SUPERVISIONADA                                                                                                                                                                                                          1I9999999900000036133100000000000000000000000000000001      200903
0101020040ACAO COLETIVA DE EXAME BUCAL C/ FINALIDADE EPIDEMIOLOGICA                                                                                                                                                                                                 1I9999999900000000133100000000000000000000000000000001      200903
0101020058APLICACAO DE CARIOSTATICO (POR DENTE)                                                                                                                                                                                                                     1I9999999900000000133100000000000000000000000000000001      200903
0101020066APLICACAO DE SELANTE (POR DENTE)                                                                                                                                                                                                                          1I9999999900000000133100000000000000000000000000000001      200903
0101020074APLICACAO TOPICA DE FLUOR (INDIVIDUAL POR SESSAO)                                                                                                                                                                                                         1I9999999900000000133100000000000000000000000000000001      200903
0101020082EVIDENCIACAO DE PLACA BACTERIANA                                                                                                                                                                                                                          1I9999999900000000133100000000000000000000000000000001      200903
0101020090SELAMENTO PROVISORIO DE CAVIDADE DENTARIA                                                                                                                                                                                                                 1I9999999900000000133100000000000000000000000000000001      200903
0101030010VISITA DOMICILIAR POR PROFISSIONAL DE NIVEL MEDIO                                                                                                                                                                                                         1I9999999900000000133100000000000000000000000000000001      200903
0101030029VISITA DOMICILIAR/INSTITUCIONAL EM REABILTACAO -POR PROFISSIONAL DE NIVEL SUPERIOR                                                                                                                                                                        1I9999999900000000133100000000000000000000000000000001      200903
0101040016APLICACAO DE SUPLEMENTOS DE MICRONUTRIENTES                                                                                                                                                                                                               1I9999999900000000059900000000000000000000000000000001      200903
0101040024AVALIACAO ANTROPOMETRICA                                                                                                                                                                                                                                  1I9999999900000000133100000000000000000000000000000001      200903
0101040032COLETA EXTERNA DE LEITE MATERNO (POR DOADORA)                                                                                                                                                                                                             2F9999999900000144059900000000000000000063000000000006      200903
0101040040PASTEURIZACAO DO LEITE HUMANO (CADA 5 LITROS)                                                                                                                                                                                                             2N9999999900009999999900000000000000000050000000000006      200903
0102010013APLICACAO DE  MULTA                                                                                                                                                                                                                                       0N9999999900009999999900000000000000000000000000000007      200903
0102010021APLICACAO DE ADVERTENCIA                                                                                                                                                                                                                                  0N9999999900009999999900000000000000000000000000000007      200903
0102010030APLICACAO DE INTERDICAO DE PRODUTO                                                                                                                                                                                                                        0N9999999900009999999900000000000000000000000000000007      200903
0102010048APLICACAO DE INTERDICAO PARCIAL / TOTAL DE ESTABELECIMENTO                                                                                                                                                                                                0N9999999900009999999900000000000000000000000000000007      200903
0102010056ATIVIDADES EDUCATIVAS P/ PROFISSIONAIS DO SETOR REGULADO                                                                                                                                                                                                  0N9999999900009999999900000000000000000000000000000007      200903
0102010064AVALIACAO DE PROJETO BASICO DE ARQUITETURA                                                                                                                                                                                                                0N9999999900009999999900000000000000000000000000000007      200903
0102010072CADASTRO DE ESTABELECIMENTOS SUJEITOS A VIGILANCIA SANITARIA                                                                                                                                                                                              0N9999999900009999999900000000000000000000000000000007      200903
0102010080CANCELAMENTO DE ALVARA DE LICENCIAMENTO SANITARIO P/ ESTABELECIMENTO DE SAUDE                                                                                                                                                                             0N9999999900009999999900000000000000000000000000000007      200903
0102010099CANCELAMENTO DE ALVARA DE LICENCIAMENTO SANITARIO P/ ESTABELECIMENTO EXCETO OS DE SAUDE                                                                                                                                                                   0N9999999900009999999900000000000000000000000000000007      200903
0102010102COLETA DE AMOSTRA  P/ ANALISE DE CONTROLE                                                                                                                                                                                                                 0N9999999900009999999900000000000000000000000000000007      200903
0102010110COLETA DE AMOSTRA  P/ ANALISE FISCAL                                                                                                                                                                                                                      0N9999999900009999999900000000000000000000000000000007      200903
0102010129EMISSAO DE ALVARA DE LICENCIAMENTO SANITARIO P/ ESTABELECIMENTO DE SAUDE                                                                                                                                                                                  0N9999999900009999999900000000000000000000000000000007      200903
0102010137EMISSAO DE ALVARA DE LICENCIAMENTO SANITARIO P/ ESTABELECIMENTO EXCETO OS DE SAUDE                                                                                                                                                                        0N9999999900009999999900000000000000000000000000000007      200903
0102010145INSPECAO SANITARIA                                                                                                                                                                                                                                        0N9999999900009999999900000000000000000000000000000007      200903
0102010153INVESTIGACAO DE SURTO QUEIXA TECNICA / EVENTO ADVERSO                                                                                                                                                                                                     0N9999999900009999999900000000000000000000000000000007      200903
0201010011AMNIOCENTESE                                                                                                                                                                                                                                              2F9999999900000120059900000002200000000220000000000006      200903
0201010020BIOPSIA / PUNCAO DE TUMOR SUPERFICIAL DA PELE                                                                                                                                                                                                             2I9999999900000000133100000000000000001410000000000006      200903
0201010038BIOPSIA CIRURGICA DE TIREOIDE                                                                                                                                                                                                                             2I0001000200880000133100000123700000000000000000768606      200903
0201010046BIOPSIA DE ANUS E CANAL ANAL                                                                                                                                                                                                                              2I9999999900000000133100000018460000001846000000000006      200903
0201010054BIOPSIA DE BACO POR PUNCAO / ASPIRACAO                                                                                                                                                                                                                    2I9999999900000000133100000000000000000000000000000006      200903
0201010062BIOPSIA DE BEXIGA                                                                                                                                                                                                                                         2I9999999900000000133100000041680000004168000000000006      200903
0201010070BIOPSIA DE BOLSA ESCROTAL                                                                                                                                                                                                                                 2M9999999900000000133100000018330000001833000000000006      200903
0201010089BIOPSIA DE CONDUTO AUDITIVO EXTERNO                                                                                                                                                                                                                       2I9999999900000000133100000000000000001906000000000006      200903
0201010097BIOPSIA DE CONJUNTIVA                                                                                                                                                                                                                                     2I0002000100350000133100000018650000003110000000124506      200903
0201010100BIOPSIA DE CORDAO ESPERMATICO (UNILATERAL)                                                                                                                                                                                                                2M9999999900000000133100000046190000004619000000000006      200903
0201010119BIOPSIA DE CORNEA                                                                                                                                                                                                                                         2I0002000101200000133100000048730000006862000000198906      200903
0201010127BIOPSIA DE CORPO VERTEBRAL A CEU ABERTO                                                                                                                                                                                                                   3I0001000200880216133100000585660000000000000002268006      200903
0201010135BIOPSIA DE CORPO VERTEBRAL LAMINA E PEDICULO VERTEBRAL (POR DISPOSITIVO GUIADO)                                                                                                                                                                           3I0001000200880216133100000149010000000000000001296006      200903
0201010143BIOPSIA DE ENDOCARDIO / MIOCARDIO                                                                                                                                                                                                                         3I0001000100880000133100000577280000070926000001319806      200903
0201010151BIOPSIA DE ENDOMETRIO                                                                                                                                                                                                                                     2F9999999900000228133100000000000000001833000000000006      200903
0201010160BIOPSIA DE ENDOMETRIO POR ASPIRACAO MANUAL INTRA-UTERINA                                                                                                                                                                                                  2F0001000100480228133100000068150000008569000000175406      200903
0201010178BIOPSIA DE EPIDIDIMO                                                                                                                                                                                                                                      2M9999999900000120133100000046190000004619000000000006      200903
0201010186BIOPSIA DE ESCLERA                                                                                                                                                                                                                                        2I0002000101200000133100000048730000006862000000198906      200903
0201010194BIOPSIA DE FARINGE                                                                                                                                                                                                                                        2I9999999900000000133100000019060000001906000000000006      200903
0201010208BIOPSIA DE FIGADO EM CUNHA / FRAGMENTO                                                                                                                                                                                                                    2I0001000200880000133100000114290000000000000000833006      200903
0201010216BIOPSIA DE FIGADO POR PUNCAO                                                                                                                                                                                                                              2I9999999900000000133100000071150000007115000000000006      200903
0201010224BIOPSIA DE GANGLIO LINFATICO                                                                                                                                                                                                                              2I9999999900000000133100000046190000004619000000000006      200903
0201010232BIOPSIA DE GLANDULA SALIVAR                                                                                                                                                                                                                               2I9999999900000000133100000031270000003127000000000006      200903
0201010240BIOPSIA DE IRIS, CORPO CILIAR, RETINA, COROIDE E VITREO                                                                                                                                                                                                   2I0002000101800000133100000115860000019921000000833506      200903
0201010259BIOPSIA DE LAMINA PEDICULO E PROCESSOS VERTEBRAIS (A CEU ABERTO)                                                                                                                                                                                          3I0001000200880216133100000172460000000000000001150206      200903
0201010267BIOPSIA DE LESAO DE PARTES MOLES (POR AGULHA / CEU ABERTO)                                                                                                                                                                                                2I0001000100670000133100000065500000011436000000488606      200903
0201010275BIOPSIA DE MEDULA OSSEA                                                                                                                                                                                                                                   2I9999999900000000133100000046280000004628000000000006      200903
0201010283BIOPSIA DE MUSCULO (A CEU ABERTO)                                                                                                                                                                                                                         2I9999999900000000133100000018330000001833000000000006      200903
0201010291BIOPSIA DE NERVO                                                                                                                                                                                                                                          2I9999999900000000133100000000000000003006000000000006      200903
0201010305BIOPSIA DE OSSO / CARTILAGEM DA CINTURA ESCAPULAR (POR AGULHA / CEU ABERTO)                                                                                                                                                                               2I0002000200880000133100000119600000018275000000631506      200903
0201010313BIOPSIA DE OSSO / CARTILAGEM DA CINTURA PELVICA (POR AGULHA / CEU ABERTO)                                                                                                                                                                                 2I0002000200880000133100000119990000018339000000634006      200903
0201010321BIOPSIA DE OSSO / CARTILAGEM DE MEMBRO INFERIOR (POR AGULHA / CEU ABERTO)                                                                                                                                                                                 2I0002000100880000133100000122000000018878000000667806      200903
0201010330BIOPSIA DE OSSO / CARTILAGEM DE MEMBRO SUPERIOR (POR AGULHA / CEU ABERTO)                                                                                                                                                                                 2I0002000100880000133100000125410000018826000000628506      200903
0201010348BIOPSIA DE OSSO DO CRANIO E DA FACE                                                                                                                                                                                                                       2I9999999900000000133100000000000000002399000000000006      200903
0201010356BIOPSIA DE PALPEBRA                                                                                                                                                                                                                                       2I9999999900000000133100000000000000001833000000000006      200903
0201010364BIOPSIA DE PAVILHAO AURICULAR                                                                                                                                                                                                                             2I9999999900000000133100000000000000001466000000000006      200903
0201010372BIOPSIA DE PELE E PARTES MOLES                                                                                                                                                                                                                            2I0001999900000000133100000025830000002583000000000006      200903
0201010380BIOPSIA DE PENIS                                                                                                                                                                                                                                          2M9999999900000000133100000018330000001833000000000006      200903
0201010399BIOPSIA DE PIRAMIDE NASAL                                                                                                                                                                                                                                 2I9999999900000000133100000000000000001833000000000006      200903
0201010402BIOPSIA DE PLEURA (POR AGULHA / PLEUROSCOPIA)                                                                                                                                                                                                             2I0002000100480000133100000090420000011368000000232606      200903
0201010410BIOPSIA DE PROSTATA                                                                                                                                                                                                                                       2M9999999900000120133100000000000000004619000000000006      200903
0201010429BIOPSIA DE PULMAO POR ASPIRACAO                                                                                                                                                                                                                           2I9999999900000000133100000000000000000000000000000006      200903
0201010437BIOPSIA DE RIM POR PUNCAO                                                                                                                                                                                                                                 2I9999999900000000133100000046190000004619000000000006      200903
0201010445BIOPSIA DE SEIO PARANASAL                                                                                                                                                                                                                                 2I9999999900000000133100000000000000001833000000000006      200903
0201010453BIOPSIA DE SINOVIA                                                                                                                                                                                                                                        2I9999999900000000133100000000000000003006000000000006      200903
0201010461BIOPSIA DE TESTICULO                                                                                                                                                                                                                                      2M9999999900000120133100000000000000004619000000000006      200903
0201010470BIOPSIA DE TIREOIDE OU PARATIREOIDE                                                                                                                                                                                                                       2I9999999900000000133100000000000000002373000000000006      200903
0201010488BIOPSIA DE URETER                                                                                                                                                                                                                                         2I9999999900000000133100000046190000004619000000000006      200903
0201010496BIOPSIA DE URETRA                                                                                                                                                                                                                                         2I9999999900000000133100000046190000004619000000000006      200903
0201010500BIOPSIA DE VAGINA                                                                                                                                                                                                                                         2F9999999900000000133100000018330000001833000000000006      200903
0201010518BIOPSIA DE VULVA                                                                                                                                                                                                                                          2F9999999900000000133100000018330000001833000000000006      200903
0201010526BIOPSIA DOS TECIDOS MOLES DA BOCA                                                                                                                                                                                                                         2I9999999900000000133100000021560000002156000000000006      200903
0201010534BIOPSIA ESTEREOTAXICA                                                                                                                                                                                                                                     3I0001000214840156133100001074210000000000000006703206      200903
0201010542BIOPSIA PERCUTANEA ORIENTADA POR TOMOGRAFIA COMPUTADORIZADA / ULTRASSONOGRAFIA / RESSONANCIA MAGNETICA / RAIO X                                                                                                                                           3I9999999900000000133100000097000000009700000000000006      200903
0201010550BIOPSIA PRE-ESCALENICA                                                                                                                                                                                                                                    2I9999000200880000133100000101560000000000000000766706      200903
0201010569BIOPSIA/EXERESE DE NODULO DE MAMA                                                                                                                                                                                                                         2I9999999900000192133100000000000000003500000000000006      200903
0201010577BIOPSIAS MULTIPLAS P/ ESTADIAMENTO                                                                                                                                                                                                                        3I9999000505450000133100002350930000000000000006836006      200903
0201010585PUNCAO ASPIRATIVA DE MAMA POR AGULHA FINA                                                                                                                                                                                                                 2I9999999900000192133100000000000000003324000000000006      200903
0201010593PUNCAO DE CISTERNA SUB-OCCIPITAL                                                                                                                                                                                                                          2I9999999900000000133100000000000000000704000000000006      200903
0201010607PUNCAO DE MAMA POR AGULHA GROSSA                                                                                                                                                                                                                          2I9999999900000192133100000000000000006843000000000006      200903
0201010615PUNCAO DE VAGINA                                                                                                                                                                                                                                          2F9999999900000000133100000014100000001410000000000006      200903
0201010623PUNCAO EXPLORADORA DO DEFERENTE                                                                                                                                                                                                                           2M9999999900000000133100000014100000001410000000000006      200903
0201010631PUNCAO LOMBAR                                                                                                                                                                                                                                             2I9999999900000000133100000000000000000704000000000006      200903
0201010640PUNCAO P/ ESVAZIAMENTO                                                                                                                                                                                                                                    2I9999999900000000133100000000000000001325000000000006      200903
0201010658PUNCAO VENTRICULAR TRANSFONTANELAR                                                                                                                                                                                                                        2I9999999900000000133100000000000000000704000000000006      200903
0201010666BIOPSIA DO COLO UTERINO                                                                                                                                                                                                                                   2F9999999900000144133100000018330000001833000000000006      200903
0201020017COLETA DE LAVADO BRONCO-ALVEOLAR                                                                                                                                                                                                                          2I9999999900000000133100000000000000000280000000000006      200903
0201020025COLETA DE LINFA P/ PESQUISA DE M. LEPRAE                                                                                                                                                                                                                  1I9999999900000000133100000000000000000000000000000001      200903
0201020033COLETA DE MATERIAL P/ EXAME CITOPATOLOGICO DE COLO UTERINO                                                                                                                                                                                                1F9999999900000120133100000000000000000100000000000006      200903
0201020041COLETA DE MATERIAL P/ EXAME LABORATORIAL                                                                                                                                                                                                                  1I9999999900000000133100000000000000000000000000000001      200903
0201020050COLETA DE SANGUE P/ TRIAGEM NEONATAL                                                                                                                                                                                                                      1I9999999900000000001100000000000000000053000000000006      200903
0202010015CLEARANCE OSMOLAR                                                                                                                                                                                                                                         2I9999999900000000133100000000000000000351000000000006      200903
0202010023DETERMINACAO DE CAPACIDADE DE FIXACAO DO FERRO                                                                                                                                                                                                            2I9999999900000000133100000000000000000201000000000006      200903
0202010031DETERMINACAO DE CROMATOGRAFIA DE AMINOACIDOS                                                                                                                                                                                                              2I9999999900000000133100000000000000001565000000000006      200903
0202010040DETERMINACAO DE CURVA GLICEMICA (2 DOSAGENS)                                                                                                                                                                                                              2I9999999900000000133100000000000000000363000000000006      200903
0202010058DETERMINACAO DE CURVA GLICEMICA C/ INDUCAO POR CORTISONA ( 5 DOSAGENS)                                                                                                                                                                                    2I9999999900000000133100000000000000000655000000000006      200903
0202010066DETERMINACAO DE CURVA GLICEMICA C/ INDUCAO POR CORTISONA (4 DOSAGENS)                                                                                                                                                                                     2I9999999900000000133100000000000000000368000000000006      200903
0202010074DETERMINACAO DE CURVA GLICEMICA CLASSICA (5 DOSAGENS)                                                                                                                                                                                                     2I9999999900000000133100000000000000001000000000000006      200903
0202010082DETERMINACAO DE OSMOLARIDADE                                                                                                                                                                                                                              2I9999999900000000133100000000000000000351000000000006      200903
0202010090DOSAGEM DE 5-NUCLEOTIDASE                                                                                                                                                                                                                                 2I9999999900000000133100000000000000000351000000000006      200903
0202010104DOSAGEM DE ACETONA                                                                                                                                                                                                                                        2I9999999900000000133100000000000000000185000000000006      200903
0202010112DOSAGEM DE ACIDO ASCORBICO                                                                                                                                                                                                                                2I9999999900000000133100000000000000000201000000000006      200903
0202010120DOSAGEM DE ACIDO URICO                                                                                                                                                                                                                                    2I9999999900000000133100000000000000000185000000000006      200903
0202010139DOSAGEM DE ACIDO VANILMANDELICO                                                                                                                                                                                                                           2I9999999900000000133100000000000000000900000000000006      200903
0202010147DOSAGEM DE ALDOLASE                                                                                                                                                                                                                                       2I9999999900000000133100000000000000000368000000000006      200903
0202010155DOSAGEM DE ALFA-1-ANTITRIPSINA                                                                                                                                                                                                                            2I9999999900000000133100000000000000000368000000000006      200903
0202010163DOSAGEM DE ALFA-1-GLICOPROTEINA ACIDA                                                                                                                                                                                                                     2I9999999900000000133100000000000000000368000000000006      200903
0202010171DOSAGEM DE ALFA-2-MACROGLOBULINA                                                                                                                                                                                                                          2I9999999900000000133100000000000000000368000000000006      200903
0202010180DOSAGEM DE AMILASE                                                                                                                                                                                                                                        2I9999999900000000133100000000000000000225000000000006      200903
0202010198DOSAGEM DE AMONIA                                                                                                                                                                                                                                         2I9999999900000000133100000000000000000351000000000006      200903
0202010201DOSAGEM DE BILIRRUBINA TOTAL E FRACOES                                                                                                                                                                                                                    2I9999999900000000133100000000000000000201000000000006      200903
0202010210DOSAGEM DE CALCIO                                                                                                                                                                                                                                         2I9999999900000000133100000000000000000185000000000006      200903
0202010228DOSAGEM DE CALCIO IONIZAVEL                                                                                                                                                                                                                               2I9999999900000000133100000000000000000351000000000006      200903
0202010236DOSAGEM DE CAROTENO                                                                                                                                                                                                                                       2I9999999900000000133100000000000000000201000000000006      200903
0202010244DOSAGEM DE CATECOLAMINAS                                                                                                                                                                                                                                  2I9999999900000000133100000000000000000000000000000006      200903
0202010252DOSAGEM DE CERULOPLASMINA                                                                                                                                                                                                                                 2I9999999900000000133100000000000000000368000000000006      200903
0202010260DOSAGEM DE CLORETO                                                                                                                                                                                                                                        2I9999999900000000133100000000000000000185000000000006      200903
0202010279DOSAGEM DE COLESTEROL HDL                                                                                                                                                                                                                                 2I9999999900000000133100000000000000000351000000000006      200903
0202010287DOSAGEM DE COLESTEROL LDL                                                                                                                                                                                                                                 2I9999999900000000133100000000000000000351000000000006      200903
0202010295DOSAGEM DE COLESTEROL TOTAL                                                                                                                                                                                                                               2I9999999900000000133100000000000000000185000000000006      200903
0202010309DOSAGEM DE COLINESTERASE                                                                                                                                                                                                                                  2I9999999900000000133100000000000000000368000000000006      200903
0202010317DOSAGEM DE CREATININA                                                                                                                                                                                                                                     2I9999999900000000133100000000000000000185000000000006      200903
0202010325DOSAGEM DE CREATINOFOSFOQUINASE (CPK)                                                                                                                                                                                                                     2I9999999900000000133100000000000000000368000000000006      200903
0202010333DOSAGEM DE CREATINOFOSFOQUINASE FRACAO MB                                                                                                                                                                                                                 2I9999999900000000133100000000000000000412000000000006      200903
0202010341DOSAGEM DE DESIDROGENASE ALFA-HIDROXIBUTIRICA                                                                                                                                                                                                             2I9999999900000000133100000000000000000351000000000006      200903
0202010350DOSAGEM DE DESIDROGENASE GLUTAMICA                                                                                                                                                                                                                        2I9999999900000000133100000000000000000351000000000006      200903
0202010368DOSAGEM DE DESIDROGENASE LATICA                                                                                                                                                                                                                           2I9999999900000000133100000000000000000368000000000006      200903
0202010376DOSAGEM DE DESIDROGENASE LATICA (ISOENZIMAS FRACIONADAS)                                                                                                                                                                                                  2I9999999900000000133100000000000000000368000000000006      200903
0202010384DOSAGEM DE FERRITINA                                                                                                                                                                                                                                      2I9999999900000000133100000000000000001559000000000006      200903
0202010392DOSAGEM DE FERRO SERICO                                                                                                                                                                                                                                   2I9999999900000000133100000000000000000351000000000006      200903
0202010406DOSAGEM DE FOLATO                                                                                                                                                                                                                                         2I9999999900000000133100000000000000001565000000000006      200903
0202010414DOSAGEM DE FOSFATASE ACIDA TOTAL                                                                                                                                                                                                                          2I9999999900000000133100000000000000000201000000000006      200903
0202010422DOSAGEM DE FOSFATASE ALCALINA                                                                                                                                                                                                                             2I9999999900000000133100000000000000000201000000000006      200903
0202010430DOSAGEM DE FOSFORO                                                                                                                                                                                                                                        2I9999999900000000133100000000000000000185000000000006      200903
0202010449DOSAGEM DE FRACAO PROSTATICA DA FOSFATASE ACIDA                                                                                                                                                                                                           2I9999999900000000133100000000000000000201000000000006      200903
0202010457DOSAGEM DE GALACTOSE                                                                                                                                                                                                                                      2I9999999900000000133100000000000000000351000000000006      200903
0202010465DOSAGEM DE GAMA-GLUTAMIL-TRANSFERASE (GAMA GT)                                                                                                                                                                                                            2I9999999900000000133100000000000000000351000000000006      200903
0202010473DOSAGEM DE GLICOSE                                                                                                                                                                                                                                        2I9999999900000000133100000000000000000185000000000006      200903
0202010481DOSAGEM DE GLICOSE-6-FOSFATO DESIDROGENASE                                                                                                                                                                                                                2I9999999900000000133100000000000000000368000000000006      200903
0202010490DOSAGEM DE HAPTOGLOBINA                                                                                                                                                                                                                                   2I9999999900000000133100000000000000000368000000000006      200903
0202010503DOSAGEM DE HEMOGLOBINA GLICOSILADA                                                                                                                                                                                                                        2I9999999900000000133100000000000000000786000000000006      200903
0202010511DOSAGEM DE HIDROXIPROLINA                                                                                                                                                                                                                                 2I9999999900000000133100000000000000000368000000000006      200903
0202010520DOSAGEM DE ISOMERASE-FOSFOHEXOSE                                                                                                                                                                                                                          2I9999999900000000133100000000000000000351000000000006      200903
0202010538DOSAGEM DE LACTATO                                                                                                                                                                                                                                        2I9999999900000000133100000000000000000368000000000006      200903
0202010546DOSAGEM DE LEUCINO-AMINOPEPTIDASE                                                                                                                                                                                                                         2I9999999900000000133100000000000000000351000000000006      200903
0202010554DOSAGEM DE LIPASE                                                                                                                                                                                                                                         2I9999999900000000133100000000000000000225000000000006      200903
0202010562DOSAGEM DE MAGNESIO                                                                                                                                                                                                                                       2I9999999900000000133100000000000000000201000000000006      200903
0202010570DOSAGEM DE MUCO-PROTEINAS                                                                                                                                                                                                                                 2I9999999900000000133100000000000000000201000000000006      200903
0202010589DOSAGEM DE PIRUVATO                                                                                                                                                                                                                                       2I9999999900000000133100000000000000000368000000000006      200903
0202010597DOSAGEM DE PORFIRINAS                                                                                                                                                                                                                                     2I9999999900000000133100000000000000000351000000000006      200903
0202010600DOSAGEM DE POTASSIO                                                                                                                                                                                                                                       2I9999999900000000133100000000000000000185000000000006      200903
0202010619DOSAGEM DE PROTEINAS TOTAIS                                                                                                                                                                                                                               2I9999999900000000133100000000000000000140000000000006      200903
0202010627DOSAGEM DE PROTEINAS TOTAIS E FRACOES                                                                                                                                                                                                                     2I9999999900000000133100000000000000000185000000000006      200903
0202010635DOSAGEM DE SODIO                                                                                                                                                                                                                                          2I9999999900000000133100000000000000000185000000000006      200903
0202010643DOSAGEM DE TRANSAMINASE GLUTAMICO-OXALACETICA (TGO)                                                                                                                                                                                                       2I9999999900000000133100000000000000000201000000000006      200903
0202010651DOSAGEM DE TRANSAMINASE GLUTAMICO-PIRUVICA (TGP)                                                                                                                                                                                                          2I9999999900000000133100000000000000000201000000000006      200903
0202010660DOSAGEM DE TRANSFERRINA                                                                                                                                                                                                                                   2I9999999900000000133100000000000000000412000000000006      200903
0202010678DOSAGEM DE TRIGLICERIDEOS                                                                                                                                                                                                                                 2I9999999900000000133100000000000000000351000000000006      200903
0202010686DOSAGEM DE TRIPTOFANO                                                                                                                                                                                                                                     2I9999999900000000133100000000000000000351000000000006      200903
0202010694DOSAGEM DE UREIA                                                                                                                                                                                                                                          2I9999999900000000133100000000000000000185000000000006      200903
0202010708DOSAGEM DE VITAMINA B12                                                                                                                                                                                                                                   2I9999999900000000133100000000000000001524000000000006      200903
0202010716ELETROFORESE DE LIPOPROTEINAS                                                                                                                                                                                                                             2I9999999900000000133100000000000000000368000000000006      200903
0202010724ELETROFORESE DE PROTEINAS                                                                                                                                                                                                                                 2I9999999900000000133100000000000000000442000000000006      200903
0202010732GASOMETRIA (PH PCO2 PO2 BICARBONATO AS2 (EXCETO BASE )                                                                                                                                                                                                    2I9999999900000000133100000000000000001565000000000006      200903
0202010740PROVA DA D-XILOSE                                                                                                                                                                                                                                         2I9999999900000000133100000000000000000368000000000006      200903
0202010759TESTE DE TOLERANCIA A INSULINA / HIPOGLICEMIANTES ORAIS                                                                                                                                                                                                   2I9999999900000000133100000000000000000655000000000006      200903
0202020010CITOQUIMICA HEMATOLOGICA                                                                                                                                                                                                                                  2I9999999900000000133100000000000000000648000000000006      200903
0202020029CONTAGEM DE PLAQUETAS                                                                                                                                                                                                                                     2I9999999900000000133100000000000000000273000000000006      200903
0202020037CONTAGEM DE RETICULOCITOS                                                                                                                                                                                                                                 2I9999999900000000133100000000000000000273000000000006      200903
0202020045DETERMINACAO DE CURVA DE RESISTENCIA GLOBULAR                                                                                                                                                                                                             2I9999999900000000133100000000000000000273000000000006      200903
0202020053DETERMINACAO DE ENZIMAS ERITROCITARIAS (CADA)                                                                                                                                                                                                             2I9999999900000000133100000000000000000273000000000006      200903
0202020061DETERMINACAO DE SULFO-HEMOGLOBINA                                                                                                                                                                                                                         2I9999999900000000133100000000000000000273000000000006      200903
0202020070DETERMINACAO DE TEMPO DE COAGULACAO                                                                                                                                                                                                                       2I9999999900000000133100000000000000000273000000000006      200903
0202020088DETERMINACAO DE TEMPO DE LISE DA EUGLOBULINA                                                                                                                                                                                                              2I9999999900000000133100000000000000000273000000000006      200903
0202020096DETERMINACAO DE TEMPO DE SANGRAMENTO -DUKE                                                                                                                                                                                                                2I9999999900000000133100000000000000000273000000000006      200903
0202020100DETERMINACAO DE TEMPO DE SANGRAMENTO DE IVY                                                                                                                                                                                                               2I9999999900000000133100000000000000000900000000000006      200903
0202020118DETERMINACAO DE TEMPO DE SOBREVIDA DE HEMACIAS                                                                                                                                                                                                            2I9999999900000000133100000000000000000579000000000006      200903
0202020126DETERMINACAO DE TEMPO DE TROMBINA                                                                                                                                                                                                                         2I9999999900000000133100000000000000000285000000000006      200903
0202020134DETERMINACAO DE TEMPO DE TROMBOPLASTINA PARCIAL ATIVADA (TTP ATIVADA)                                                                                                                                                                                     2I9999999900000000133100000000000000000577000000000006      200903
0202020142DETERMINACAO DE TEMPO E ATIVIDADE DA PROTROMBINA (TAP)                                                                                                                                                                                                    2I9999999900000000133100000000000000000273000000000006      200903
0202020150DETERMINACAO DE VELOCIDADE DE HEMOSSEDIMENTACAO (VHS)                                                                                                                                                                                                     2I9999999900000000133100000000000000000273000000000006      200903
0202020169DOSAGEM DE ANTICOAGULANTE CIRCULANTE                                                                                                                                                                                                                      2I9999999900000000133100000000000000000411000000000006      200903
0202020177DOSAGEM DE ANTITROMBINA III                                                                                                                                                                                                                               2I9999999900000000133100000000000000000648000000000006      200903
0202020185DOSAGEM DE FATOR II                                                                                                                                                                                                                                       2I9999999900000000133100000000000000000531000000000006      200903
0202020193DOSAGEM DE FATOR IX                                                                                                                                                                                                                                       2I9999999900000000133100000000000000000761000000000006      200903
0202020207DOSAGEM DE FATOR V                                                                                                                                                                                                                                        2I9999999900000000133100000000000000000473000000000006      200903
0202020215DOSAGEM DE FATOR VII                                                                                                                                                                                                                                      2I9999999900000000133100000000000000000809000000000006      200903
0202020223DOSAGEM DE FATOR VIII                                                                                                                                                                                                                                     2I9999999900000000133100000000000000000663000000000006      200903
0202020231DOSAGEM DE FATOR VIII (INIBIDOR)                                                                                                                                                                                                                          2I9999999900000000133100000000000000001500000000000006      200903
0202020240DOSAGEM DE FATOR VON WILLEBRAND (ANTIGENO)                                                                                                                                                                                                                2I9999999900000000133100000000000000001891000000000006      200903
0202020258DOSAGEM DE FATOR X                                                                                                                                                                                                                                        2I9999999900000000133100000000000000000666000000000006      200903
0202020266DOSAGEM DE FATOR XI                                                                                                                                                                                                                                       2I9999999900000000133100000000000000000911000000000006      200903
0202020274DOSAGEM DE FATOR XII                                                                                                                                                                                                                                      2I9999999900000000133100000000000000001051000000000006      200903
0202020282DOSAGEM DE FATOR XIII                                                                                                                                                                                                                                     2I9999999900000000133100000000000000000666000000000006      200903
0202020290DOSAGEM DE FIBRINOGENIO                                                                                                                                                                                                                                   2I9999999900000000133100000000000000000460000000000006      200903
0202020304DOSAGEM DE HEMOGLOBINA                                                                                                                                                                                                                                    2I9999999900000000133100000000000000000153000000000006      200903
0202020312DOSAGEM DE HEMOGLOBINA - INSTABILIDADE A 37OC                                                                                                                                                                                                             2I9999999900000000133100000000000000000273000000000006      200903
0202020320DOSAGEM DE HEMOGLOBINA FETAL                                                                                                                                                                                                                              2I9999999900000000133100000000000000000273000000000006      200903
0202020339DOSAGEM DE HEMOSSIDERINA                                                                                                                                                                                                                                  2I9999999900000000133100000000000000000273000000000006      200903
0202020347DOSAGEM DE PLASMINOGENIO                                                                                                                                                                                                                                  2I9999999900000000133100000000000000000411000000000006      200903
0202020355ELETROFORESE DE HEMOGLOBINA                                                                                                                                                                                                                               2I9999999900000000133100000000000000000541000000000006      200903
0202020363ERITROGRAMA (ERITROCITOS, HEMOGLOBINA, HEMATOCRITO)                                                                                                                                                                                                       2I9999999900000000133100000000000000000273000000000006      200903
0202020371HEMATOCRITO                                                                                                                                                                                                                                               2I9999999900000000133100000000000000000153000000000006      200903
0202020380HEMOGRAMA COMPLETO                                                                                                                                                                                                                                        2I9999999900000000133100000000000000000411000000000006      200903
0202020398LEUCOGRAMA                                                                                                                                                                                                                                                2I9999999900000000133100000000000000000273000000000006      200903
0202020401PESQUISA DE ATIVIDADE DO COFATOR DE RISTOCETINA                                                                                                                                                                                                           2I9999999900000000133100000000000000002500000000000006      200903
0202020410PESQUISA DE CELULAS LE                                                                                                                                                                                                                                    2I9999999900000000133100000000000000000411000000000006      200903
0202020428PESQUISA DE CORPUSCULOS DE HEINZ                                                                                                                                                                                                                          2I9999999900000000133100000000000000000273000000000006      200903
0202020436PESQUISA DE FILARIA                                                                                                                                                                                                                                       2I9999999900000000133100000000000000000273000000000006      200903
0202020444PESQUISA DE HEMOGLOBINA S                                                                                                                                                                                                                                 2I9999999900000000133100000000000000000273000000000006      200903
0202020452PESQUISA DE PLASMODIO                                                                                                                                                                                                                                     1I9999999900000000133100000000000000000000000000000001      200903
0202020460PESQUISA DE TRIPANOSSOMA                                                                                                                                                                                                                                  2I9999999900000000133100000000000000000273000000000006      200903
0202020479PROVA DE COMPATIBILIDADE PRE-TRANSFUSIONAL (MEIOS SALINOS, ALBUMINOSO E COOMBS)                                                                                                                                                                           2I9999999900000000133100000000000000000000000000000006      200903
0202020487PROVA DE CONSUMO DE PROTROMBINA                                                                                                                                                                                                                           2I9999999900000000133100000000000000000411000000000006      200903
0202020495PROVA DE RETRACAO DO COAGULO                                                                                                                                                                                                                              2I9999999900000000133100000000000000000273000000000006      200903
0202020509PROVA DO LACO                                                                                                                                                                                                                                             2I9999999900000000133100000000000000000273000000000006      200903
0202020517RASTREIO P/ DEFICIENCIA DE ENZIMAS ERITROCITARIAS                                                                                                                                                                                                         2I9999999900000000133100000000000000000273000000000006      200903
0202020525TESTE DE AGREGACAO DE PLAQUETAS                                                                                                                                                                                                                           2I9999999900000000133100000000000000001200000000000006      200903
0202020533TESTE DE HAM (HEMOLISE ACIDA)                                                                                                                                                                                                                             2I9999999900000000133100000000000000000273000000000006      200903
0202020541TESTE DIRETO DE ANTIGLOBULINA HUMANA (TAD)                                                                                                                                                                                                                2I9999999900000000133100000000000000000273000000000006      200903
0202030016CONTAGEM DE LINFOCITOS B                                                                                                                                                                                                                                  2I9999999900000000133100000000000000001500000000000006      200903
0202030024CONTAGEM DE LINFOCITOS CD4/CD8                                                                                                                                                                                                                            3I9999999900000000133100000000000000001500000000000006      200903
0202030032CONTAGEM DE LINFOCITOS T TOTAIS                                                                                                                                                                                                                           2I9999999900000000133100000000000000001500000000000006      200903
0202030040DETECCAO DE RNA DO HIV-1 (QUALITATIVO)                                                                                                                                                                                                                    2I9999999900000024133100000000000000006500000000000006      200903
0202030059DETECCAO DE RNA DO VIRUS DA HEPATITE C (QUALITATIVO)                                                                                                                                                                                                      2I9999999900000000133100000000000000009600000000000006      200903
0202030067DETERMINACAO DE COMPLEMENTO (CH50)                                                                                                                                                                                                                        2I9999999900000000133100000000000000000925000000000006      200903
0202030075DETERMINACAO DE FATOR REUMATOIDE                                                                                                                                                                                                                          2I9999999900000000133100000000000000000283000000000006      200903
0202030083DETERMINACAO QUANTITATIVA DE PROTEINA C REATIVA                                                                                                                                                                                                           2I9999999900000000133100000000000000000925000000000006      200903
0202030091DOSAGEM DE ALFA-FETOPROTEINA                                                                                                                                                                                                                              2I9999999900000000133100000000000000001506000000000006      200903
0202030105DOSAGEM DE ANTIGENO PROSTATICO ESPECIFICO (PSA)                                                                                                                                                                                                           2M9999999900000000133100000000000000001642000000000006      200903
0202030113DOSAGEM DE BETA-2-MICROGLOBULINA                                                                                                                                                                                                                          2I9999999900000000133100000000000000001355000000000006      200903
0202030121DOSAGEM DE COMPLEMENTO C3                                                                                                                                                                                                                                 2I9999999900000000133100000000000000001716000000000006      200903
0202030130DOSAGEM DE COMPLEMENTO C4                                                                                                                                                                                                                                 2I9999999900000000133100000000000000001716000000000006      200903
0202030148DOSAGEM DE CRIOAGLUTININA                                                                                                                                                                                                                                 2I9999999900000000133100000000000000000283000000000006      200903
0202030156DOSAGEM DE IMUNOGLOBULINA A (IGA)                                                                                                                                                                                                                         2I9999999900000000133100000000000000001716000000000006      200903
0202030164DOSAGEM DE IMUNOGLOBULINA E (IGE)                                                                                                                                                                                                                         2I9999999900000000133100000000000000000925000000000006      200903
0202030172DOSAGEM DE IMUNOGLOBULINA G (IGG)                                                                                                                                                                                                                         2I9999999900000000133100000000000000000000000000000006      200903
0202030180DOSAGEM DE IMUNOGLOBULINA M (IGM)                                                                                                                                                                                                                         2I9999999900000000133100000000000000001716000000000006      200903
0202030199DOSAGEM DE INIBIDOR DE C1-ESTERASE                                                                                                                                                                                                                        2I9999999900000000133100000000000000000410000000000006      200903
0202030202DOSAGEM DE PROTEINA C REATIVA                                                                                                                                                                                                                             2I9999999900000000133100000000000000000283000000000006      200903
0202030210GENOTIPAGEM DE VIRUS DA HEPATITE C                                                                                                                                                                                                                        3I9999999900000000133100000000000000029848000000000006      200903
0202030229IMUNOELETROFORESE DE PROTEINAS                                                                                                                                                                                                                            2I9999999900000000133100000000000000001716000000000006      200903
0202030237IMUNOFENOTIPAGEM DE HEMOPATIAS MALIGNAS (POR MARCADOR)                                                                                                                                                                                                    2I0010999900000000133100000000000000008000000000000006      200903
0202030245INTADERMORREACAO COM DERIVADO PROTEICO PURIFICADO (PPD)                                                                                                                                                                                                   1I9999999900000000133100000000000000000000000000000001      200903
0202030253PESQUISA DE ANTICORPO IGG ANTICARDIOLIPINA                                                                                                                                                                                                                2I9999999900000000133100000000000000001000000000000006      200903
0202030261PESQUISA DE ANTICORPO IGM ANTICARDIOLIPINA                                                                                                                                                                                                                2I9999999900000000133100000000000000001000000000000006      200903
0202030270PESQUISA DE ANTICORPOS ANTI-DNA                                                                                                                                                                                                                           2I9999999900000000133100000000000000000867000000000006      200903
0202030288PESQUISA DE ANTICORPOS ANTI-HELICOBACTER PYLORI                                                                                                                                                                                                           2I9999999900000000133100000000000000001716000000000006      200903
0202030296PESQUISA DE ANTICORPOS ANTI-HIV-1 (WESTERN BLOT)                                                                                                                                                                                                          2I9999999900000024133100000000000000008500000000000006      200903
0202030300PESQUISA DE ANTICORPOS ANTI-HIV-1 + HIV-2 (ELISA)                                                                                                                                                                                                         2I9999999900000024133100000000000000001000000000000006      200903
0202030318PESQUISA DE ANTICORPOS ANTI-HTLV-1 + HTLV-2                                                                                                                                                                                                               2I9999999900000000133100000000000000001855000000000006      200903
0202030326PESQUISA DE ANTICORPOS ANTI-RIBONUCLEOPROTEINA (RNP)                                                                                                                                                                                                      2I9999999900000000133100000000000000001716000000000006      200903
0202030334PESQUISA DE ANTICORPOS ANTI-SCHISTOSOMAS                                                                                                                                                                                                                  2I9999999900000000133100000000000000000574000000000006      200903
0202030342PESQUISA DE ANTICORPOS ANTI-SM                                                                                                                                                                                                                            2I9999999900000000133100000000000000001716000000000006      200903
0202030350PESQUISA DE ANTICORPOS ANTI-SS-A (RO)                                                                                                                                                                                                                     2I9999999900000000133100000000000000001855000000000006      200903
0202030369PESQUISA DE ANTICORPOS ANTI-SS-B (LA)                                                                                                                                                                                                                     2I9999999900000000133100000000000000001855000000000006      200903
0202030377PESQUISA DE ANTICORPOS ANTIADENOVIRUS                                                                                                                                                                                                                     2I9999999900000000133100000000000000000925000000000006      200903
0202030385PESQUISA DE ANTICORPOS ANTIAMEBAS                                                                                                                                                                                                                         2I9999999900000000133100000000000000001000000000000006      200903
0202030393PESQUISA DE ANTICORPOS ANTIASPERGILLUS                                                                                                                                                                                                                    2I9999999900000000133100000000000000000925000000000006      200903
0202030407PESQUISA DE ANTICORPOS ANTIBRUCELAS                                                                                                                                                                                                                       2I9999999900000000133100000000000000000370000000000006      200903
0202030415PESQUISA DE ANTICORPOS ANTICISTICERCO                                                                                                                                                                                                                     2I9999999900000000133100000000000000000583000000000006      200903
0202030423PESQUISA DE ANTICORPOS ANTICLAMIDIA (POR IMUNOFLUORESCENCIA)                                                                                                                                                                                              2I9999999900000000133100000000000000001000000000000006      200903
0202030431PESQUISA DE ANTICORPOS ANTICORTEX SUPRARENAL                                                                                                                                                                                                              2I9999999900000000133100000000000000001716000000000006      200903
0202030440PESQUISA DE ANTICORPOS ANTIEQUINOCOCOS                                                                                                                                                                                                                    2I9999999900000000133100000000000000000925000000000006      200903
0202030458PESQUISA DE ANTICORPOS ANTIESCLERODERMA (SCL 70)                                                                                                                                                                                                          2I9999999900000000133100000000000000001000000000000006      200903
0202030466PESQUISA DE ANTICORPOS ANTIESPERMATOZOIDES                                                                                                                                                                                                                2I9999999900000000133100000000000000000970000000000006      200903
0202030474PESQUISA DE ANTICORPOS ANTIESTREPTOLISINA O (ASLO)                                                                                                                                                                                                        2I9999999900000000133100000000000000000283000000000006      200903
0202030482PESQUISA DE ANTICORPOS ANTIFIGADO                                                                                                                                                                                                                         2I9999999900000000133100000000000000001000000000000006      200903
0202030490PESQUISA DE ANTICORPOS ANTIGLIADINA (GLUTEN) IGG IGM E IGA                                                                                                                                                                                                2I9999999900000000133100000000000000001716000000000006      200903
0202030504PESQUISA DE ANTICORPOS ANTIGLOMERULO                                                                                                                                                                                                                      2I9999999900000000133100000000000000001000000000000006      200903
0202030512PESQUISA DE ANTICORPOS ANTIILHOTA DE LANGERHANS                                                                                                                                                                                                           2I9999999900000000133100000000000000001000000000000006      200903
0202030520PESQUISA DE ANTICORPOS ANTIINSULINA                                                                                                                                                                                                                       2I9999999900000000133100000000000000001716000000000006      200903
0202030539PESQUISA DE ANTICORPOS ANTILEPTOSPIRAS                                                                                                                                                                                                                    2I9999999900000000133100000000000000000410000000000006      200903
0202030547PESQUISA DE ANTICORPOS ANTILISTERIA                                                                                                                                                                                                                       2I9999999900000000133100000000000000000550000000000006      200903
0202030555PESQUISA DE ANTICORPOS ANTIMICROSSOMAS                                                                                                                                                                                                                    2I9999999900000000133100000000000000001716000000000006      200903
0202030563PESQUISA DE ANTICORPOS ANTIMITOCONDRIA                                                                                                                                                                                                                    2I9999999900000000133100000000000000001716000000000006      200903
0202030571PESQUISA DE ANTICORPOS ANTIMUSCULO ESTRIADO                                                                                                                                                                                                               2I9999999900000000133100000000000000001716000000000006      200903
0202030580PESQUISA DE ANTICORPOS ANTIMUSCULO LISO                                                                                                                                                                                                                   2I9999999900000000133100000000000000001716000000000006      200903
0202030598PESQUISA DE ANTICORPOS ANTINUCLEO                                                                                                                                                                                                                         2I9999999900000000133100000000000000001716000000000006      200903
0202030601PESQUISA DE ANTICORPOS ANTIPARIETAIS                                                                                                                                                                                                                      2I9999999900000000133100000000000000001716000000000006      200903
0202030610PESQUISA DE ANTICORPOS ANTIPLASMODIOS                                                                                                                                                                                                                     2I9999999900000000133100000000000000001000000000000006      200903
0202030628PESQUISA DE ANTICORPOS ANTITIREOGLOBULINA                                                                                                                                                                                                                 2I9999999900000000133100000000000000001716000000000006      200903
0202030636PESQUISA DE ANTICORPOS CONTRA ANTIGENO DE SUPERFICIE DO VIRUS DA HEPATITE B (ANTI-HBS)                                                                                                                                                                    2I9999999900000000133100000000000000001855000000000006      200903
0202030644PESQUISA DE ANTICORPOS CONTRA ANTIGENO E DO VIRUS DA HEPATITE B (ANTI-HBE)                                                                                                                                                                                2I9999999900000000133100000000000000001855000000000006      200903
0202030652PESQUISA DE ANTICORPOS CONTRA HISTOPLASMA                                                                                                                                                                                                                 2I9999999900000000133100000000000000000778000000000006      200903
0202030660PESQUISA DE ANTICORPOS CONTRA O SPOROTRIX SCHENKII                                                                                                                                                                                                        2I9999999900000000133100000000000000000971000000000006      200903
0202030679PESQUISA DE ANTICORPOS CONTRA O VIRUS DA HEPATITE C (ANTI-HCV)                                                                                                                                                                                            2I9999999900000000133100000000000000001855000000000006      200903
0202030687PESQUISA DE ANTICORPOS CONTRA O VIRUS DA HEPATITE D (ANTI-HDV)                                                                                                                                                                                            2I9999999900000000133100000000000000001855000000000006      200903
0202030695PESQUISA DE ANTICORPOS CONTRA O VIRUS DO SARAMPO                                                                                                                                                                                                          2I9999999900000000133100000000000000000925000000000006      200903
0202030709PESQUISA DE ANTICORPOS CONTRA PARACOCCIDIOIDES BRASILIENSIS                                                                                                                                                                                               2I9999999900000000133100000000000000000410000000000006      200903
0202030717PESQUISA DE ANTICORPOS E/OU ANTIGENO DO VIRUS SINCICIAL RESPIRATORIO                                                                                                                                                                                      2I9999999900000000133100000000000000001855000000000006      200903
